:100000008031122808000800803120007F08FD00A0
:100010002700160803190E28973133277D08200082
:10002000FF00090088310328AD01AE013C302200F9
:10003000AA002330AB0081319121803121006C086E
:10004000031D23282C286C0886008701010D010D53
:100050000139A900AA012E28A901AA012A08290408
:10006000031D332834281B28CB2802302100AF0081
:100070002D0822002A07860021002E0822002B3D91
:10008000870021002F08A03E840002308500000870
:100090008100AD0A0319AE0AAF0A22302F02031CF9
:1000A000522853283828DA2831302400A3002100B0
:1000B000B0018828250022082000D600D7012100A1
:1000C00030082000D6070318D70AE8208031250021
:1000D00022082000D600D701210030082000D800D7
:1000E000FB208031250022082000D600D701210006
:1000F00030082000D800492180310038031D8128B4
:100100008228862830302400A30090282100B00ADD
:100110002500230821003002031C8F2890285A282C
:1001200022003708031D95289F283708860087017D
:10013000010D010D01392100AB00AC01A228210005
:10014000AB01AC012C082B04031DA728A828C0284C
:1001500046302400A000250021082400A10025002D
:1001600022082400A2002000D901D90A2030DA0098
:100170000F30DB0001308231CD2280312200B70008
:100180003C302200AA002330AB002100AD01AE01BB
:10019000DA280100DA2825002008443A0319352816
:1001A000163A0319C928053A031954280F3A0319B6
:1001B000E728DA282000D901A030DA004030DB003F
:1001C00001308231CD2280312100EC001B28080053
:1001D0008B1323005608910057089200151315162B
:1001E000151555309600AA309600951400000000B1
:1001F00015118B17080058085607D900570803181F
:10020000570ADA000530D935DA0D890B0329590868
:10021000D6005A08D7005808D9000030DA0059082B
:100220002200AA0020005A082200AB003C30AA0796
:100230002330AB3D0630AA35AB0D890B1B298B1340
:10024000230057089200560891002A30840001309C
:1002500085001513151595161200930012009400D1
:1002600011081F3A1F3903193E2955309600AA304C
:100270009600951400000000910A2C299512553023
:100280009600AA30960095140000000015118B17F7
:10029000080058085607D90057080318570ADA000B
:1002A0000530D935DA0D890B51295908D6005A087D
:1002B000D7005808D9000030DA0059082200AA00F7
:1002C00020005A082200AB003C30AA072330AB3D87
:1002D0000630AA35AB0D890B69290130D600230001
:1002E0002A30840001308500563086005730870060
:1002F000160091001600920015131514000000005E
:1003000012001306031D8E2912001406031D8E29E8
:1003100011081F3A1F390319902978290030D60097
:1003200008002100EB08031D96299729A9293D0003
:100330008E019201163091009F3097007B30920021
:10034000A2298E158E1DA529A629A1292100EB0120
:10035000EB0A6B03031DAD29AE29BA293D008E1AA5
:10036000B229B329BA29900192011214121602304F
:100370002100EB003D00101DBE29BF29C729121D19
:10038000C229C329C72910118731EC2781318E1C5E
:10039000CA29CB29CE2920001211872A101CD12965
:1003A000D229DD29121CD529D629DD299631BF266F
:1003B00081310430EB003D001010101EE029E129CE
:1003C000EA29121EE429E529EA2996310526813118
:1003D0003D001012101FED29EE290F2A121FF129DE
:1003E000F229FF2973302000E000E1010030E20033
:1003F0000030E300E401E40AE501882281313D0098
:10040000101322003A08031D062A072ABA03BA0865
:10041000031D0B2A0C2A0F2A8731962781313D00B4
:10042000901E132A142A1B2A921E172A182A1B2AE6
:10043000963114268131901C1E2A1F2A332A921CC1
:10044000222A232A332AFF302000E0007F30E100F7
:100450000030E2000030E300E401E40AE501882214
:1004600081313D009301043021006B020318392AC9
:100470003A2A3B2ACB293D00921D3F2A402ACB290C
:100480002100A8013D00901D462A472ACB290F08CC
:100490002100EF006F0CA700A70C270C0F392200DA
:1004A000BC003D00901121006F19572A582A612A7B
:1004B00022003C08283E860001308700013081067A
:1004C000692A22003C08263E860001308700013060
:1004D0008106BC08031D6D2A6E2A722A8631B72652
:1004E00081317E2A72302000E000E101EF30E2002D
:1004F0000030E300E401E501882281312100A80AEF
:1005000004302802031C852A862A422ACB290800A7
:10051000A52A803103208131CC2A8731FE27813101
:10052000CC2A8731FF278131CC2A96316826813148
:10053000CC2A883102208131CC2A8731FC278131B5
:10054000CC2A803102208131CC2A6108003A03197B
:10055000AD2A7F3A0319C72ACC2A6008013A031949
:10056000952A033A0319992A013A03199D2A063A52
:100570000319CC2A773A0319CC2A013A0319892A9C
:10058000073A0319912A013A03198D2ACC2A6008E7
:10059000FF3A0319A12ACC2A0800DE005908031DDE
:1005A000D22AD92A5E086A3E860087010108DF0048
:1005B000E02A5E082C3E8600013087000108DF003B
:1005C000DF08031DE42AE52AE72A0030152B5A0824
:1005D000DC000230DD005F08023E860087015C0817
:1005E000C03F5D08C13F5F0A860087015B0881004C
:1005F0005F0886008701403081055F08860087011B
:10060000883081045908031D062B0D2B5E086A3EB5
:100610008600870104308106142B5E082C3E86007C
:1006200001308700043081065F0808002200C10104
:100630002000EC012200B501B601B0012000ED015F
:100640006A088600043087018113EA066A0886007A
:1006500004308113EA066F08860081132200CC0162
:10066000CD01CE01A201A301A40143230330200048
:10067000E0000030E101E201E301E401E501823143
:1006800088228331C62D2000400E890C0339031DBA
:100690000800772B22000830CC172100EB0008005F
:1006A000B82CFC2C4F302200CA000130CB004C1477
:1006B000CD01CD0ACC170800742C822B4408503E83
:1006C000532B2200CC1720004408503E86000130F6
:1006D00087004208810008000230E0000030E1019C
:1006E000E201E301E401E5018231882208004108CA
:1006F00084000D3004020318080090310435BD3E1B
:10070000820008002000420B962B40081F39031D71
:10071000962B2200CC1720004108033A031D942B8E
:100720002200B101B10A962B2200B101200042083B
:10073000031D080040081F39023A031D0800440841
:100740000F390319080044080F39E6000230660229
:100750000318080021006B08203A031D080022003E
:10076000CC172000C41BC32B44080F392C3E860035
:100770000130870001082100A300200044080F3940
:10078000283E8600D22B44080F396A3E8600870136
:1007900001082100A300200044080F39263E8600EE
:1007A0000130870001082100A2002218D92B231153
:1007B000DA2B23152000C41BE42B44080F392C3EF0
:1007C000860001308700E92B44080F396A3E860015
:1007D000870121002308810020004108033A031DFE
:1007E0000C2C2100230886008701811F052C200086
:1007F000C41BFE2B44080F39283E012C44080F3936
:10080000263E8600013087008114210023088600DF
:10081000843087018104080004302100A3062308E6
:10082000860087012308811F292C860081138600FA
:10083000053001172000E000E1012100230820001D
:10084000E200E301E401E40AE50182318822833118
:100850002C2C86008701011704302100A306A21862
:10086000362C230886008701811F5A2C2000C41BC8
:100870003D2C44080F39283E402C44080F39263EB1
:1008800086000130870081102100230886003B305C
:100890008701810505302000E000E10121002308E7
:1008A0002000E200E301E401E40AE501823188224C
:1008B00083315F2C230886003B30870181052000AF
:1008C00044080F39983EE6000E30E701E73D660820
:1008D0002100A000200067082100A1002008860058
:1008E00021088700011008002000C801C901A32CBD
:1008F0002200CC17200048142200310BAE2C20001F
:10090000C814AE2C2200CC17AE2C2200CC1720002D
:10091000C41B912C44080F392C3E860001308700FF
:10092000962C44080F396A3E860087010108D600DC
:1009300086008701811FAE2C56088600011DAE2C53
:100940000130C800AE2C40081F390319782C013A39
:100950000319822C033A0319852CAE2C2200CC1FDC
:1009600008004830CA000230CB014C14CD0008000A
:1009700020004008803A031D0800C0302200CC004F
:10098000EF2C9B302200CA009030CB001230CD00FB
:10099000CE0108001230840090309D268331B026AD
:1009A0008331023EA8268331CD004B08B026833127
:1009B000033EA826CE000800033042020318EC2CA8
:1009C0000F30840090309D264A0884004B08850033
:1009D0000008CD00CE0108002200CC010800200054
:1009E0004308013A0319C12C033A0319CA2C013AEE
:1009F0000319DC2CEC2C080022000E30CC17200050
:100A0000E7009930E600E80166088600670887007D
:100A10008101E60A0319E70AE80A0319042D2030C8
:100A2000D600D701D801D901DA00DB01592583317D
:100A30003D000E172000E9016908263E86000130BE
:100A4000870081016908283E860002308101E90A99
:100A50006902031C1C2D5030D6000130D700D8018C
:100A6000D901DA01DA0ADB01592583313D000E1381
:100A700028302000EA002030EE00EF00420822007B
:100A8000CF00CF08031D482D10302100EB000800D7
:100A900020004F30E001E00AE101E2000130E30014
:100AA000E401E40AE5018231882220302100EB00D4
:100AB00008005708DE005608DD000130DA02003079
:100AC000DB3B5A0A03195B0A031908005808DC00CB
:100AD0005D0886005E0887005C088100DD0A031956
:100AE000DE0A5D2D20006A08860000308701011BA8
:100AF0000130DB000430EA0621006B08083A031DD0
:100B00008D2D200042083D009600160803198A2DFD
:100B100010308B2D04302100EB0020006D0BB92D1F
:100B20004830D900DA016A08023E86008701590878
:100B3000C03F5A08C13F3D26833122004108023A96
:100B4000031DA92D20006A088600843087018100DA
:100B500008002000DB08031DB32D6A088600C8309A
:100B60008701810008006A088600883087018100BB
:100B700008002200A21FC32D25080319C22D250835
:100B80008531C12DA2132000ED0108003D000E1299
:100B90002200CC1BE42DA21FD92D02302000ED0035
:100BA0002200B608031DD52D01262200B901B80187
:100BB000080020006F0A86008D268C3081006A08AC
:100BC00086008430810008002000C01FF82DED0150
:100BD000ED0A2200B508031DEF2D01268331220006
:100BE000B901B8012000EC08031D08008731962FD9
:100BF0000230ED006F0A86008D268331843081003B
:100C0000EF2DB501B60120006D08023A031D1A2E22
:100C10006F0A86000830870181004830D900DA0168
:100C20006F08023E86005908C03F5A08C13F6F084E
:100C30008731E82F22004E0820004702031D242E92
:100C400022004D082000460203182D2E47082200DE
:100C5000CE00200046082200CD003D2683314830DA
:100C6000D900DA016A08023E860087015908C03FB0
:100C70005A08C13F6A088731E82F08302000D800A1
:100C8000003022004E02083003194D020318562E80
:100C90004D082000D8002200C108031D522EC101BA
:100CA000C10A562E410B562E0230C10020005808B2
:100CB000D600D70122004D02CD00200057082200A7
:100CC0004E3BCE0020006A0A86008701580881004A
:100CD00048302200BF004C1C702E772E7C268331BA
:100CE0002000D808031908006E2E7C2683312000CE
:100CF000D80803190800752E22003F0886008701D6
:100D00004A0884004B08850000088100CA0A0319BC
:100D1000CB0ABF0A2000D8030800083087018100F1
:100D20004030DB00DC016F08023E86005B08C03FFC
:100D30005C08C13F6F0886000800850042088407F0
:100D40000318850A003F2200CA009030CB0008003B
:100D5000840057080318570A85000008220008007D
:100D60002000D70022004A082000D60008002D30BD
:100D7000BA0021006F08FD39031D062F6F363F3979
:100D800009070907203E2000EE00EF000430EF06BF
:100D90006E0886008701010C890C0F390D3A031D7E
:100DA000052F2100A6012608403E8600870120006D
:100DB0006E08023E84008501003F2100A400013F2F
:100DC000A500240884002508850000088100200073
:100DD0006E08023E86000130810741310318810A06
:100DE00021000830A60A2602031CD32E4030A4009E
:100DF000A50120006E08023E86008701210024081C
:100E0000C03F2508C13F8331162B0E2FFD306F05E3
:100E1000A400043A031D08008531722D6D08023AC2
:100E2000031D132F2B2FED012200B008031D292FC6
:100E30002000D1278631DC00DD016F08023E8600EC
:100E40005C08C03F5D08C13F6F0886008C308100A0
:100E50000800B00108006E0886008701413FDB00F2
:100E6000D800D901590822002402031D3B2F20007D
:100E70005808220023020318402F23082000DB001B
:100E800020005B08D800D90122002302A300200023
:100E900059082200243BA4002000DA015B085A0212
:100EA0000318622F220020088600870120005A08BC
:100EB000483E84008501000881002200A00A20002D
:100EC000DA0A4E2F0330203E8600013087001600DC
:100ED00001040319812F6F0A860008308701810001
:100EE0004830D72786316E0886006F08011B7C2F9B
:100EF0008600C830810008008600883087018100A4
:100F00000800D1278631D72786316F0886008430C4
:100F10008100220025080319902F250887318F2F83
:100F2000A2132000EC08031D0800962F2200B80829
:100F3000031D08000130B800B908031D0800B900FE
:100F400020006D08023A031DAB2F6A0A8600870154
:100F500081016A08E82F6D0B08002200B001200013
:100F60006E0A86000830870181004030D600D70124
:100F70006E08E12786316E088600843081002200E9
:100F8000B001B00A20006F0A8600083081004030AE
:100F9000D600D7016F08E1276F08860080308100F6
:100FA00008006F0A86000830870181004034D800AD
:100FB000D9016F08023E86005808C03F5908C13F5A
:100FC0000800023E86005608C03F5708C13F08008F
:100FD0008600C8308100080074302000E000003036
:100FE000E101E201E301E401E501823188223D00F3
:100FF0008E10121110110800FD2F080008000800C3
:1010040008003C30840023308500B430FE000030FA
:10101400FF019531ED258831EA01EB01EC01ED0189
:10102400EE01EF0121002030EB01EC01ED01EE01B6
:10103400EF018400013085003130FE000030FF00F4
:101044009531ED258831A030840001308500383099
:10105400FE000030FF009531ED2588312C308400EE
:101064009630850051308600013087000030FF0043
:101074001C309531E1258831F930840095308500A4
:10108400D8308600013087000030FF000C309531E5
:10109400E125883148308400963085002030860070
:1010A400033087000030FF0020309531E12588317E
:1010B40020005C28C5258131912188310B1D6428CD
:1010C400DB25883122005208503A031D6B28552233
:1010D4008831702588315D28E60093290330220089
:1010E40055020318BE282100F12688316E0820001D
:1010F400D600D701220055082000D6070318D70AC6
:101104000330D6052D30D701D800D9011B228831F0
:101114003C302100E1002330E20020005608210089
:1011240061078400200057082100623D85002D30AE
:10113400FF0016001A00FF0B9B282200D50A520854
:10114400523A031DBE283C30C32688319B26883181
:101154001B22883156082100E10020005708210095
:10116400E20061082000E607210062082000E73D54
:101174008B238831552288312100F726883152305B
:10118400DE000130DF000D30E000B1218831AE29EE
:10119400EE012200D50152307829F7268831AD308E
:1011A400DE009030DF000C30E000B1218831AE2940
:1011B400F12688311600010403194D296608023E00
:1011C40086000230870067308400013085000630D5
:1011D400FF0016001A00FF0BEB2800302200680203
:1011E4008030031967020318FA288030E700E80109
:1011F40000306802FB300319670203180B29003022
:101204006802E13003196702031C0B29E030E70090
:10121400E80101306802C23003196702031C162971
:10122400C130E7000130E80000306802FB300319E8
:1012340067026708DF006808E000E101E2010318C3
:101244002A29133008278831890B2429173030299B
:10125400123008278831890B2B290730DF0400302E
:10126400E0040330E1040030E20468082000D70001
:10127400220067082000D6000430D8003030D9009E
:10128400302288315608003C2200D1006B082C0023
:1012940092002200D9012100F72688316730DE0050
:1012A4000130DF000630E000B1218831AE29F1269B
:1012B40088310108313A003003190130E100E10EB0
:1012C40022000C0821006106EF39610622008C001F
:1012D40021006608023E86000108313A0319742988
:1012E400443075295230E300E4012200D200BE28C4
:1012F400E50165086607E100023E860002308700CA
:101304006508013E90310A0089310106031D080079
:101314000E30E50A6502031C7B29803114208831D4
:10132400AE2966088600023087000108413A031995
:10133400CA28023A0319DA28063A03195929033A42
:1013440003197A290F3A0319CF281A3A0319BE2828
:10135400043A03197028AE2922008C16080060088C
:10136400E100E20121006D082000D6000F30D70112
:10137400D800D9011B22883161085607E3006208AE
:10138400573DE4006308023EE5000030643DE6009A
:10139400803AFF0080307F02031DD229403065026D
:1013A400031808000F302000D60021006D082E25F8
:1013B4008831203E8600023087005C0884005D0886
:1013C4008500000881000F30D60021006D082E250D
:1013D4008831213E860002308700220033088100D4
:1013E4002000E701600867020318162A0F30D600B0
:1013F40021006D082E258831E100223EE2006708B5
:101404006207E3008600023087005F08E5005E089B
:10141400E40067086407840065080318650A85000A
:1014240000088100E70AF42921000330ED0AED05E4
:101434000800DA01DB01561C232A5808DA07590888
:10144400DB3DD835D90DD736D60C57085604031DC5
:101454001D2A5B08D7005A08D6000800DB01DC010E
:10146400570856040319502ADA01DA0AD71B3D2A11
:10147400D635D70D372ADB35DC0D57085902031D45
:10148400452A56085802031C4C2A5608D802570805
:10149400D93B5B14D736D60CDA0B3D2A5C08D7004F
:1014A4005B08D60008009B2688311B2288313C301B
:1014B400E8002330E9005608680786005708693DAC
:1014C400870001082200D6003C302000DC002330D5
:1014D400DD009B2688311B22883102278831DC07F6
:1014E4006908DD3D5030DE0095228831210003304B
:1014F400EE0AEE052200DA01DB0151082000950016
:1015040057302200D200D503031908003C30C3260B
:1015140088319B2688311B22883102278831E607CF
:101524006908E73D8B2B8B1348302200BD009030B7
:10153400BE005F30AE000130AF000230C000DF22D9
:101544008831D82688312130AE070318AF0A03301A
:10155400C000DF228831C4302200AE000130AF0069
:101564000530C000DF228831D8268831AE0A03193D
:10157400AF0A0830C000DF228831C0302200AE003C
:101584000130AF00C001C00ADF22883120005E08AC
:101594002200BE00BD00A030AE000130AF006D08D7
:1015A400C000DF22D83022008E008B17FD30DF050B
:1015B400FF30E005E105E205080022002E08860060
:1015C4002F08870048308E01011890308E00483073
:1015D4008E01811890308E0048308E0101199030B0
:1015E4008E0048308E01811990308E0048308E0173
:1015F400011A90308E0048308E01811A90308E008E
:1016040048308E01011B90308E0048308E01811BC2
:1016140090308E00413148308E01011890308E0098
:1016240048308E01811890308E0048308E010119A7
:1016340090308E0048308E01811990308E004830F1
:101644008E01011A90308E0048308E01811A90303C
:101654008E0048308E01011B90308E0048308E0180
:10166400811B90308E00413148308E01011890303A
:101674008E0048308E01811890308E0048308E01E3
:10168400011990308E0048308E01811990308E00FF
:1016940048308E01011A90308E0048308E01811A34
:1016A40090308E0048308E01011B90308E004830FF
:1016B4008E01811B90308E00413148308E0101181B
:1016C40090308E0048308E01811890308E00483062
:1016D4008E01011990308E0048308E0181199030AE
:1016E4008E0048308E01011A90308E0048308E01F1
:1016F400811A90308E0048308E01011B90308E008C
:101704003D088E01811B3E088E004131C00BE42A46
:101714000800D830860001308700A83084000030EB
:1017240085000C30FF0016001A00FF0B952B2100DA
:10173400E001802688318600230887004131BA26DB
:101744008831600809070907B83E86008701240824
:10175400C03F2508C13F2608C23F2708C33F0830C1
:10176400E00A6002031C9B2BE001522688312E25DF
:101774008831183E2B2688312E258831143EB83EF8
:1017840086008701403F2100A400413FA500423F5D
:10179400A600433FA70020082406DC0021082506F4
:1017A400DD0022082606DE0023082706DF00522675
:1017B40088312E258831103EB83E3D268831E926F1
:1017C4008831522688312E258831183EB83E3D2670
:1017D4008831DC062108DD062208DE062308DF0640
:1017E400600809070907A83E8600403FC8268831DB
:1017F40080268831213E86000030233D8700403F0B
:10180400C8268831522688312E2588311C3EB83EA0
:1018140086008701403F2100C8268831522688313E
:101824002E25883170268831682688311A30DD00EB
:101834003B25883158268831522688312E25883117
:1018440070268831682688311530DD003B258831C3
:101854005C082100B70020005B082100B6002000CE
:101864005A082100B500200059082100B400580886
:10187400E1268831522688312E2588317026883118
:10188400682688310730DD003B25883158268831A9
:10189400E126883134085C07A00035085D3DA100CD
:1018A40036085E3DA20037085F3DA300522688310A
:1018B4002E258831FD2688317626883152268831B6
:1018C4002E2588311C3E2B2688312E2588310C3E4E
:1018D400B83E86008701403F2100A007413FA13D5B
:1018E400423FA23D433FA33D522688312E258831F5
:1018F4000C3EB83E860087017626883193268831CF
:10190400403F2000682688311E30DD003B258831A9
:10191400A4268831932688318701403F2000682619
:1019240088311330DD003B258831582688315C0826
:10193400D0268831932688318701403F20006826CD
:1019440088310A30DD003B258831A4268831D02631
:1019540088316008013CB42688318701403F4A261B
:10196400883193268831BA26883120082404DC0083
:1019740021082504DD0022082604DE0023082704AC
:10198400DF006008023CB4268831403F4A26883193
:101994002008E92688316008013CB4268831403F9C
:1019A4004A26883193268831BA26883120082405AE
:1019B400B40021082505B50022082605B600230831
:1019C4002705B7003408DC043508DD043608DE04D6
:1019D4003708DF0458085C07A00059085D3DA100E2
:1019E4005A085E3DA2005B085F3DA3005226883181
:1019F4002E258831FD2688312100200881074131B8
:101A04002108813D41312208813D41312308813D36
:101A1400522688312E2588311C3E2B2688312E25CE
:101A24008831C83E860001308700762688315226E8
:101A340088312E2588310C3E2B2688312E2588317D
:101A4400D43E860001308700762688310330E00AD0
:101A5400600203180800B72B2000D800D7015608ED
:101A64005818D707D635D836D808031D312D57084E
:101A740008005908DE005A08DF005B08E0005C0833
:101A8400E1005D08203C890A4C2D0310E10CE00CB8
:101A9400DF0CDE0CFF3E031D472D5908E2005A08F7
:101AA400E3005B08E4005C08E5005D0A5D2DE235B7
:101AB400E30DE40DE50D890B592D6208DE0463087E
:101AC400DF046408E0046508E1046108DC006008E0
:101AD400DB005F08DA005E08D9000800203021002E
:101AE4006B02031C08003D008E18080021006C08DE
:101AF4000319842D6C0886008701010D010D01393D
:101B0400E700852DE701E80168086704031D982DA7
:101B1400A0306E202000A030D901DA004030DB0074
:101B240001308231CD2288312100EC006D08220081
:101B34003B060319080037080319A92D3708860046
:101B44008701010D010D01392100E900AB2D2100B0
:101B5400E901EA016A086904031D080020000F3046
:101B6400D901D90AD60022003B082E25203EDA00EE
:101B74000F30DB0001308231CD222200B700033068
:101B8400BB0ABB05080023008C018D0104308E00C4
:101B940021009801FC309900903027009B0021001F
:101BA400EC012200B701BB012100ED010E269631A4
:101BB400BF2E22005108200095070B1123009D1B06
:101BC400E62D9D172200B20122005208573A031D48
:101BD400042E5A30860001308700810741310318F2
:101BE400810A7F31403F5C06031DFA2D413F5D06AB
:101BF400031D042E55080319022E5030D20008008C
:101C04005230D200B40F08008C1221001C082200AC
:101C1400D70021009D1408008C1222008C161A266D
:101C24008831232788310D2788313B2788314C2F71
:101C340021000E151D08833918389D001D149E13AC
:101C44001E088F3960389E00FC309E058F309F053A
:101C54000800B83E86008701403F2100A000413FB4
:101C6400A100423FA200433FA300FC302000D60065
:101C740021006008080086008701403F2100A00081
:101C8400413FA100423FA200433FA30020080800B7
:101C9400A000413FA100423FA200433FA30008002F
:101CA400FC302000D6002100600808005C082100F8
:101CB400DB0020005B082100DA0020005A08210024
:101CC400D900200059082100D8000800D900413F5C
:101CD400DA00423FDB00433FDC000800103EB83E20
:101CE40086008701403F080021002008C03F2108EA
:101CF400C13F2208C23F2308C33F08006008A00078
:101D0400A101A035A10DA035A10D20082000660772
:101D14002100A20021082000673D2100A300220821
:101D240008006008003C073909070907B83E860027
:101D3400080021006E082000D6002D30D701D800FD
:101D4400D90108005C082100DF0020005B082100A5
:101D5400DE0020005A082100DD002000590821007F
:101D6400DC000800073909070907B83E86000800A7
:101D7400403FA400413FA500423FA600433FA700C7
:101D840008002000E6002330E7000800DC07413F9C
:101D9400DD3D423FDE3D433FDF3D0800D8065D08A0
:101DA400D9065E08DA065F08DB06080020005D0835
:101DB4002200AF0020005C082200AE000800B40638
:101DC4005908B5065A08B6065B08B7060800DC05CC
:101DD4002108DD052208DE052308DF050800660862
:101DE400023E860002308700080066082000DC00FE
:101DF4000230DD0008001C3EB83E86008701080062
:101E04005608E8005708E90068080800DF35E00DC7
:101E1400E10DE20D0800210095129511073095049B
:101E2400220051082000950021008E130E130E127B
:101E34008E11D83022008E0021000C1222000C16C4
:101E440008008E162C009301FF3020009B00C03048
:101E54002C009300E63092009101200091101C08A0
:101E6400FC3901389C001C1521008E122C0013171C
:101E74000800B20123001E169D179E131F128D1217
:101E8400270094178B1596018B1723001D16FF301E
:101E94009900080004302200D30002302000D6004C
:101EA400D70122005308013E2000D8000030031857
:101EB4000130D900C027883156082200ED002000E7
:101EC400D6004030D701D801D900C027883157083F
:101ED4002200DD00200056082200DC002300A001BF
:101EE400A101A201A3012000E601E60A22006D0877
:101EF400200066020318BA2F6608090709079C3EEA
:101F0400860001308700403FDE00413FDF00423F52
:101F1400E000433FE10022006D08090709071C3E69
:101F2400860003308700403F2000E200413FE30089
:101F3400423FE400433FE500E235E30DE40DE50DE7
:101F44006208DE076308DF3D6408E03D6508E13DA3
:101F5400660809070907A03E8600013087005E086D
:101F6400C03F5F08C13F6008C23F6108C33F772F8D
:101F740052302200D200DA01DB010800DB01D71F56
:101F8400CA2FD609D709D60A0319D70ADB01DB0AF7
:101F9400D91FD32FD809D909D80A0319D90A01306E
:101FA400DB06DC01DD01570856040319F32FDA01BF
:101FB400DA0AD71BE02FD635D70DDA2FDC35DD0D45
:101FC40057085902031DE82F56085802031CEF2F27
:101FD4005608D8025708D93B5C14D736D60CDA0B0E
:101FE400E02F5B080319FB2FDC09DD09DC0A031968
:101FF400DD0A5D08D7005C08D600080000344B34C5
:102004006C346F346E34643469346B3465345234F4
:102014006F3463346B3473340034B9341334473459
:102024007B34343403344B3400346C3400346F3434
:1020340000346E34003464340034693400346B3456
:1020440000346534003420340034503400347234A5
:1020540000346F3400346A3400346534003463343B
:102064000034743400340034003400340034003458
:1020740000340034003400340034003400340034BC
:1020840000340034003400340034343403344B342A
:102094000034313400343634003400340034003435
:1020A400003400340034003400340034003400348C
:1020B400003400340034003400340034003400347C
:1020C400003400340034003400340034003400346C
:1020D400003400340034003400340034003400345C
:1020E400003400340034003400340034003400344C
:1020F400003409340234203400340134013400340F
:10210400C034323409340434003400340234FF342B
:10211400FF34FF34003407340534013402344034CE
:10212400003401340734053481340234403400343B
:1021340001341234013400340234003400340034E5
:102144000834D83404340A34F63400340034013406
:1021540002340034013402344B3431343634003424
:10216400003400340034BE34BA34FE34CA34043487
:1021740003340934043483315C2B83315D2B833184
:10218400812B83315D2B8331812B83314A2B833126
:10219400502B83316C2B8331522B8331512B833160
:0A21A4005E2B8331612B8331812B08
:102BC200FE0012001E000130FE020030FF3B7F08B3
:102BD2007E0403190034E22D6400800101310130CA
:102BE200FE020030FF3B7F087E0403190034EE2D05
:102BF20098342F348A344234913444343734713423
:102C0200CF34FB34C034B534121510128E14753023
:102C12002000E0000030E101E201E301E401E5010E
:102C2200823188220800181C2A2E20006E08860095
:102C320087010108803A031D282E6A0886000108D0
:102C4200843A031D282E6E0886008C3081003D00D8
:102C5200181090120800D034493400340034003483
:102C62000034003400340034003400340034403482
:102C72000034073400340334043472340134003431
:102C82000034003401343C345034E634003400342F
:102C92000034003400340034003400344034AA34A8
:102CA200AA34AA342A34003400340034203499344B
:102CB2009934993419345534553455341534923481
:102CC20024344934123400340034003410341E30B9
:102CD200DA0001307726A030D901DA004030DB007B
:102CE20001308231CD222100EC000800DF005A1DA4
:102CF2007D2ED60196269631DA1C832ED601D60A6F
:102D02005F0896265F08983EDB000E30DC01DC3D52
:102D12005B08DD005C08DE005A08DB005D08860007
:102D22005E0887005B0881000800D8002030D900C7
:102D32005608D700D7355808090709075707090762
:102D42000907D9075908860087018113D608031D90
:102D5200B02E58082C3E860001308700B42E580849
:102D62006A3E86008701590881005908860087015A
:102D720001135908043E86000117080021001211B0
:102D82003D009301900198010E302000D900993046
:102D9200D800DA0158088600590887008101D80A4C
:102DA2000319D90ADA0A0319CB2E16303D00910015
:102DB2009F3097007B3092002000DB015B080907FF
:102DC2000907203E860000308701C03FC13FC23F55
:102DD200C33F0830DB0A5B02031CDF2E3D000E17E7
:102DE20096010E120E133D00901DFE2E9011220030
:102DF200CC01A201A301A401F42E01302200B800EB
:102E0200B900B501B6012000DB015B086A3E86000D
:102E1200870181015B082C3E860001308700810119
:102E22005B08263E860081015B08283E8600023050
:102E32008101DB0A5B02031C062F2830EA001630F0
:102E42003D00980040302000D600D701A20057086C
:102E5200A3000830A1008430A0002200CF0121008D
:102E6200EB010800FC012200B20104302200320210
:102E720003185D2F2000911E4A2F22003208443E83
:102E82008600013087002300190881002200B20A5F
:102E9200FC012230FC0A7C02031C522F2200DE0AB3
:102EA200702F23009D1C362F22005208573A031917
:102EB200D90A23009D13702F5208573A031D702F11
:102EC2003D30C2005608C3004230F6000130F70020
:102ED2004330F8000130F9000730FA00762723006A
:102EE2009D139D172700960108007A082000D00044
:102EF200D10121006D08F0000F30F101F200F30161
:102F0200EB279731200050087007D2005108713D1D
:102F1200D3005208023ED4000030533DD500803A1F
:102F2200FF0080307F02031D982F403054020318A7
:102F320008000F30F00021006D08DF279731203E96
:102F42008600023087007608840077088500000832
:102F520081000F30F0006D08DF279731213E860097
:102F620002308700220033088100FB017A087B02CD
:102F72000318DA2F0F30F00021006D08DF27973198
:102F82002000D000223ED1007B085107D2008600EB
:102F9200023087007908D4007808D3007B085307F1
:102FA200840054080318540A850000088100FB0AB3
:102FB200B72F21000330ED0AED050800F100F20100
:102FC20070087118F207F035F136F108031DE12F90
:102FD20072080800F401F501701CF32F7208F4075F
:102FE2007308F53DF235F30DF136F00C71087004FB
:0E2FF200031DED2F7508F1007408F0000800B3
:020000040001F9
:04000E0084CFCFDFED
:00000001FF
